{
  "_format": "hh-sol-artifact-1",
  "contractName": "WavePortal",
  "sourceName": "contracts/WavePortal.sol",
  "abi": [
    {
      "inputs": [],
      "stateMutability": "payable",
      "type": "constructor"
    },
    {
      "anonymous": false,
      "inputs": [
        {
          "indexed": true,
          "internalType": "address",
          "name": "from",
          "type": "address"
        },
        {
          "indexed": false,
          "internalType": "uint256",
          "name": "timestamp",
          "type": "uint256"
        },
        {
          "indexed": false,
          "internalType": "string",
          "name": "message",
          "type": "string"
        }
      ],
      "name": "NewWave",
      "type": "event"
    },
    {
      "inputs": [],
      "name": "getAllWavers",
      "outputs": [
        {
          "components": [
            {
              "internalType": "address",
              "name": "waver",
              "type": "address"
            }
          ],
          "internalType": "struct WavePortal.WaverStruct[]",
          "name": "",
          "type": "tuple[]"
        }
      ],
      "stateMutability": "view",
      "type": "function"
    },
    {
      "inputs": [],
      "name": "getAllWaves",
      "outputs": [
        {
          "components": [
            {
              "internalType": "address",
              "name": "waver",
              "type": "address"
            },
            {
              "internalType": "string",
              "name": "message",
              "type": "string"
            },
            {
              "internalType": "uint256",
              "name": "timestamp",
              "type": "uint256"
            }
          ],
          "internalType": "struct WavePortal.Wave[]",
          "name": "",
          "type": "tuple[]"
        }
      ],
      "stateMutability": "view",
      "type": "function"
    },
    {
      "inputs": [],
      "name": "getTotalWaves",
      "outputs": [
        {
          "internalType": "uint256",
          "name": "",
          "type": "uint256"
        }
      ],
      "stateMutability": "view",
      "type": "function"
    },
    {
      "inputs": [
        {
          "internalType": "address",
          "name": "",
          "type": "address"
        }
      ],
      "name": "lastWavedAt",
      "outputs": [
        {
          "internalType": "uint256",
          "name": "",
          "type": "uint256"
        }
      ],
      "stateMutability": "view",
      "type": "function"
    },
    {
      "inputs": [
        {
          "internalType": "string",
          "name": "_message",
          "type": "string"
        }
      ],
      "name": "wave",
      "outputs": [],
      "stateMutability": "nonpayable",
      "type": "function"
    },
    {
      "inputs": [
        {
          "internalType": "uint256",
          "name": "",
          "type": "uint256"
        }
      ],
      "name": "wavers",
      "outputs": [
        {
          "internalType": "address",
          "name": "waver",
          "type": "address"
        }
      ],
      "stateMutability": "view",
      "type": "function"
    }
  ],
  "bytecode": "0x608060405262000033604051806060016040528060258152602001620017a8602591396200003960201b6200087c1760201c565b620001cd565b620000d98160405160240162000050919062000146565b6040516020818303038152906040527f41304fac000000000000000000000000000000000000000000000000000000007bffffffffffffffffffffffffffffffffffffffffffffffffffffffff19166020820180517bffffffffffffffffffffffffffffffffffffffffffffffffffffffff8381831617835250505050620000dc60201b60201c565b50565b60008151905060006a636f6e736f6c652e6c6f679050602083016000808483855afa5050505050565b600062000112826200016a565b6200011e818562000175565b93506200013081856020860162000186565b6200013b81620001bc565b840191505092915050565b6000602082019050818103600083015262000162818462000105565b905092915050565b600081519050919050565b600082825260208201905092915050565b60005b83811015620001a657808201518184015260208101905062000189565b83811115620001b6576000848401525b50505050565b6000601f19601f8301169050919050565b6115cb80620001dd6000396000f3fe608060405234801561001057600080fd5b50600436106100625760003560e01c8063117c5564146100675780633ca736bd14610085578063449d46c0146100b55780639a2cdc08146100d1578063a42a4663146100ef578063bd43a9081461011f575b600080fd5b61006f61013d565b60405161007c9190610fd4565b60405180910390f35b61009f600480360381019061009a9190610cb4565b6101ee565b6040516100ac9190610f97565b60405180910390f35b6100cf60048036038101906100ca9190610c73565b610238565b005b6100d96106c8565b6040516100e6919061111d565b60405180910390f35b61010960048036038101906101049190610c4a565b610713565b604051610116919061111d565b60405180910390f35b61012761072b565b6040516101349190610fb2565b60405180910390f35b60606004805480602002602001604051908101604052809291908181526020016000905b828210156101e5578382906000526020600020016040518060200160405290816000820160009054906101000a900473ffffffffffffffffffffffffffffffffffffffff1673ffffffffffffffffffffffffffffffffffffffff1673ffffffffffffffffffffffffffffffffffffffff168152505081526020019060010190610161565b50505050905090565b600481815481106101fe57600080fd5b906000526020600020016000915090508060000160009054906101000a900473ffffffffffffffffffffffffffffffffffffffff16905081565b42601e600360003373ffffffffffffffffffffffffffffffffffffffff1673ffffffffffffffffffffffffffffffffffffffff168152602001908152602001600020546102859190611268565b106102c5576040517f08c379a00000000000000000000000000000000000000000000000000000000081526004016102bc906110fd565b60405180910390fd5b42600360003373ffffffffffffffffffffffffffffffffffffffff1673ffffffffffffffffffffffffffffffffffffffff16815260200190815260200160002081905550600160008082825461031b9190611268565b92505081905550600460405180602001604052803373ffffffffffffffffffffffffffffffffffffffff168152509080600181540180825580915050600190039060005260206000200160009091909190915060008201518160000160006101000a81548173ffffffffffffffffffffffffffffffffffffffff021916908373ffffffffffffffffffffffffffffffffffffffff16021790555050506103f76040518060400160405280601681526020017f257320776176656420772f206d657373616765202573000000000000000000008152503383610915565b600260405180606001604052803373ffffffffffffffffffffffffffffffffffffffff16815260200183815260200142815250908060018154018082558091505060019003906000526020600020906003020160009091909190915060008201518160000160006101000a81548173ffffffffffffffffffffffffffffffffffffffff021916908373ffffffffffffffffffffffffffffffffffffffff16021790555060208201518160010190805190602001906104b6929190610b15565b50604082015181600201555050606460015442446104d49190611268565b6104de9190611268565b6104e8919061139f565b60018190555061052f6040518060400160405280601681526020017f52616e646f6d20232067656e6572617465643a202564000000000000000000008152506001546109b4565b603260015411610675576105786040518060400160405280600781526020017f257320776f6e210000000000000000000000000000000000000000000000000081525033610a50565b6000655af3107a40009050478111156105c6576040517f08c379a00000000000000000000000000000000000000000000000000000000081526004016105bd906110bd565b60405180910390fd5b60003373ffffffffffffffffffffffffffffffffffffffff16826040516105ec90610f82565b60006040518083038185875af1925050503d8060008114610629576040519150601f19603f3d011682016040523d82523d6000602084013e61062e565b606091505b5050905080610672576040517f08c379a0000000000000000000000000000000000000000000000000000000008152600401610669906110dd565b60405180910390fd5b50505b3373ffffffffffffffffffffffffffffffffffffffff167f5f7e16dc676677766a70e9c5628aa6c54ddb8b6e5188e2ae1e1f17f1ffbea71642836040516106bd929190611138565b60405180910390a250565b600061070b6040518060400160405280601781526020017f5765206861766520256420746f74616c207761766573210000000000000000008152506000546109b4565b600054905090565b60036020528060005260406000206000915090505481565b60606002805480602002602001604051908101604052809291908181526020016000905b8282101561087357838290600052602060002090600302016040518060600160405290816000820160009054906101000a900473ffffffffffffffffffffffffffffffffffffffff1673ffffffffffffffffffffffffffffffffffffffff1673ffffffffffffffffffffffffffffffffffffffff1681526020016001820180546107d89061133c565b80601f01602080910402602001604051908101604052809291908181526020018280546108049061133c565b80156108515780601f1061082657610100808354040283529160200191610851565b820191906000526020600020905b81548152906001019060200180831161083457829003601f168201915b505050505081526020016002820154815250508152602001906001019061074f565b50505050905090565b610912816040516024016108909190610ff6565b6040516020818303038152906040527f41304fac000000000000000000000000000000000000000000000000000000007bffffffffffffffffffffffffffffffffffffffffffffffffffffffff19166020820180517bffffffffffffffffffffffffffffffffffffffffffffffffffffffff8381831617835250505050610aec565b50565b6109af83838360405160240161092d93929190611048565b6040516020818303038152906040527fe0e9ad4f000000000000000000000000000000000000000000000000000000007bffffffffffffffffffffffffffffffffffffffffffffffffffffffff19166020820180517bffffffffffffffffffffffffffffffffffffffffffffffffffffffff8381831617835250505050610aec565b505050565b610a4c82826040516024016109ca92919061108d565b6040516020818303038152906040527f9710a9d0000000000000000000000000000000000000000000000000000000007bffffffffffffffffffffffffffffffffffffffffffffffffffffffff19166020820180517bffffffffffffffffffffffffffffffffffffffffffffffffffffffff8381831617835250505050610aec565b5050565b610ae88282604051602401610a66929190611018565b6040516020818303038152906040527f319af333000000000000000000000000000000000000000000000000000000007bffffffffffffffffffffffffffffffffffffffffffffffffffffffff19166020820180517bffffffffffffffffffffffffffffffffffffffffffffffffffffffff8381831617835250505050610aec565b5050565b60008151905060006a636f6e736f6c652e6c6f679050602083016000808483855afa5050505050565b828054610b219061133c565b90600052602060002090601f016020900481019282610b435760008555610b8a565b82601f10610b5c57805160ff1916838001178555610b8a565b82800160010185558215610b8a579182015b82811115610b89578251825591602001919060010190610b6e565b5b509050610b979190610b9b565b5090565b5b80821115610bb4576000816000905550600101610b9c565b5090565b6000610bcb610bc68461118d565b611168565b905082815260208101848484011115610be357600080fd5b610bee8482856112fa565b509392505050565b600081359050610c0581611567565b92915050565b600082601f830112610c1c57600080fd5b8135610c2c848260208601610bb8565b91505092915050565b600081359050610c448161157e565b92915050565b600060208284031215610c5c57600080fd5b6000610c6a84828501610bf6565b91505092915050565b600060208284031215610c8557600080fd5b600082013567ffffffffffffffff811115610c9f57600080fd5b610cab84828501610c0b565b91505092915050565b600060208284031215610cc657600080fd5b6000610cd484828501610c35565b91505092915050565b6000610ce98383610ef8565b905092915050565b6000610cfd8383610f48565b60208301905092915050565b610d12816112be565b82525050565b610d21816112be565b82525050565b6000610d32826111de565b610d3c8185611219565b935083602082028501610d4e856111be565b8060005b85811015610d8a5784840389528151610d6b8582610cdd565b9450610d76836111ff565b925060208a01995050600181019050610d52565b50829750879550505050505092915050565b6000610da7826111e9565b610db1818561122a565b9350610dbc836111ce565b8060005b83811015610ded578151610dd48882610cf1565b9750610ddf8361120c565b925050600181019050610dc0565b5085935050505092915050565b6000610e05826111f4565b610e0f8185611246565b9350610e1f818560208601611309565b610e288161148c565b840191505092915050565b6000610e3e826111f4565b610e488185611257565b9350610e58818560208601611309565b610e618161148c565b840191505092915050565b6000610e79603483611257565b9150610e848261149d565b604082019050919050565b6000610e9c602783611257565b9150610ea7826114ec565b604082019050919050565b6000610ebf601383611257565b9150610eca8261153b565b602082019050919050565b6000610ee260008361123b565b9150610eed82611564565b600082019050919050565b6000606083016000830151610f106000860182610d09565b5060208301518482036020860152610f288282610dfa565b9150506040830151610f3d6040860182610f64565b508091505092915050565b602082016000820151610f5e6000850182610d09565b50505050565b610f6d816112f0565b82525050565b610f7c816112f0565b82525050565b6000610f8d82610ed5565b9150819050919050565b6000602082019050610fac6000830184610d18565b92915050565b60006020820190508181036000830152610fcc8184610d27565b905092915050565b60006020820190508181036000830152610fee8184610d9c565b905092915050565b600060208201905081810360008301526110108184610e33565b905092915050565b600060408201905081810360008301526110328185610e33565b90506110416020830184610d18565b9392505050565b600060608201905081810360008301526110628186610e33565b90506110716020830185610d18565b81810360408301526110838184610e33565b9050949350505050565b600060408201905081810360008301526110a78185610e33565b90506110b66020830184610f73565b9392505050565b600060208201905081810360008301526110d681610e6c565b9050919050565b600060208201905081810360008301526110f681610e8f565b9050919050565b6000602082019050818103600083015261111681610eb2565b9050919050565b60006020820190506111326000830184610f73565b92915050565b600060408201905061114d6000830185610f73565b818103602083015261115f8184610e33565b90509392505050565b6000611172611183565b905061117e828261136e565b919050565b6000604051905090565b600067ffffffffffffffff8211156111a8576111a761145d565b5b6111b18261148c565b9050602081019050919050565b6000819050602082019050919050565b6000819050602082019050919050565b600081519050919050565b600081519050919050565b600081519050919050565b6000602082019050919050565b6000602082019050919050565b600082825260208201905092915050565b600082825260208201905092915050565b600081905092915050565b600082825260208201905092915050565b600082825260208201905092915050565b6000611273826112f0565b915061127e836112f0565b9250827fffffffffffffffffffffffffffffffffffffffffffffffffffffffffffffffff038211156112b3576112b26113d0565b5b828201905092915050565b60006112c9826112d0565b9050919050565b600073ffffffffffffffffffffffffffffffffffffffff82169050919050565b6000819050919050565b82818337600083830152505050565b60005b8381101561132757808201518184015260208101905061130c565b83811115611336576000848401525b50505050565b6000600282049050600182168061135457607f821691505b602082108114156113685761136761142e565b5b50919050565b6113778261148c565b810181811067ffffffffffffffff821117156113965761139561145d565b5b80604052505050565b60006113aa826112f0565b91506113b5836112f0565b9250826113c5576113c46113ff565b5b828206905092915050565b7f4e487b7100000000000000000000000000000000000000000000000000000000600052601160045260246000fd5b7f4e487b7100000000000000000000000000000000000000000000000000000000600052601260045260246000fd5b7f4e487b7100000000000000000000000000000000000000000000000000000000600052602260045260246000fd5b7f4e487b7100000000000000000000000000000000000000000000000000000000600052604160045260246000fd5b6000601f19601f8301169050919050565b7f547279696e6720746f207769746864726177206d6f7265206d6f6e657920746860008201527f616e2074686520636f6e7472616374206861732e000000000000000000000000602082015250565b7f4661696c656420746f207769746864726177206d6f6e65792066726f6d20636f60008201527f6e74726163742e00000000000000000000000000000000000000000000000000602082015250565b7f5761697420666f72203330207365636f6e647300000000000000000000000000600082015250565b50565b611570816112be565b811461157b57600080fd5b50565b611587816112f0565b811461159257600080fd5b5056fea2646970667358221220b512f670dc1e7d2ec6ab365ebf344ecefebfaceca7c914d6959b9aea42d5158864736f6c63430008040033596f20796f2c204920616d206120636f6e747261637420616e64204920616d20736d617274",
  "linkReferences": {},
  "deployedLinkReferences": {}
}