{
  "_format": "hh-sol-artifact-1",
  "contractName": "WavePortal",
  "sourceName": "contracts/WavePortal.sol",
  "abi": [
    {
      "inputs": [],
      "stateMutability": "nonpayable",
      "type": "constructor"
    },
    {
      "inputs": [],
      "name": "getAllWavers",
      "outputs": [
        {
          "components": [
            {
              "internalType": "address",
              "name": "waver",
              "type": "address"
            }
          ],
          "internalType": "struct WavePortal.WaverStruct[]",
          "name": "",
          "type": "tuple[]"
        }
      ],
      "stateMutability": "view",
      "type": "function"
    },
    {
      "inputs": [],
      "name": "getTotalWaves",
      "outputs": [
        {
          "internalType": "uint256",
          "name": "",
          "type": "uint256"
        }
      ],
      "stateMutability": "view",
      "type": "function"
    },
    {
      "inputs": [],
      "name": "wave",
      "outputs": [],
      "stateMutability": "nonpayable",
      "type": "function"
    },
    {
      "inputs": [
        {
          "internalType": "uint256",
          "name": "",
          "type": "uint256"
        }
      ],
      "name": "wavers",
      "outputs": [
        {
          "internalType": "address",
          "name": "waver",
          "type": "address"
        }
      ],
      "stateMutability": "view",
      "type": "function"
    }
  ],
  "bytecode": "0x608060405234801561001057600080fd5b5061003c604051806060016040528060258152602001610a806025913961004160201b6102fc1760201c565b6101c4565b6100dd816040516024016100559190610142565b6040516020818303038152906040527f41304fac000000000000000000000000000000000000000000000000000000007bffffffffffffffffffffffffffffffffffffffffffffffffffffffff19166020820180517bffffffffffffffffffffffffffffffffffffffffffffffffffffffff83818316178352505050506100e060201b60201c565b50565b60008151905060006a636f6e736f6c652e6c6f679050602083016000808483855afa5050505050565b600061011482610164565b61011e818561016f565b935061012e818560208601610180565b610137816101b3565b840191505092915050565b6000602082019050818103600083015261015c8184610109565b905092915050565b600081519050919050565b600082825260208201905092915050565b60005b8381101561019e578082015181840152602081019050610183565b838111156101ad576000848401525b50505050565b6000601f19601f8301169050919050565b6108ad806101d36000396000f3fe608060405234801561001057600080fd5b506004361061004c5760003560e01c8063117c5564146100515780633ca736bd1461006f5780636fe15b441461009f5780639a2cdc08146100a9575b600080fd5b6100596100c7565b6040516100669190610647565b60405180910390f35b6100896004803603810190610084919061050b565b610178565b604051610096919061062c565b60405180910390f35b6100a76101c2565b005b6100b16102b1565b6040516100be91906106eb565b60405180910390f35b60606001805480602002602001604051908101604052809291908181526020016000905b8282101561016f578382906000526020600020016040518060200160405290816000820160009054906101000a900473ffffffffffffffffffffffffffffffffffffffff1673ffffffffffffffffffffffffffffffffffffffff1673ffffffffffffffffffffffffffffffffffffffff1681525050815260200190600101906100eb565b50505050905090565b6001818154811061018857600080fd5b906000526020600020016000915090508060000160009054906101000a900473ffffffffffffffffffffffffffffffffffffffff16905081565b60016000808282546101d4919061075b565b92505081905550600160405180602001604052803373ffffffffffffffffffffffffffffffffffffffff168152509080600181540180825580915050600190039060005260206000200160009091909190915060008201518160000160006101000a81548173ffffffffffffffffffffffffffffffffffffffff021916908373ffffffffffffffffffffffffffffffffffffffff16021790555050506102af6040518060400160405280600d81526020017f257320686173207761766564210000000000000000000000000000000000000081525033610395565b565b60006102f46040518060400160405280601781526020017f5765206861766520256420746f74616c20776176657321000000000000000000815250600054610431565b600054905090565b610392816040516024016103109190610669565b6040516020818303038152906040527f41304fac000000000000000000000000000000000000000000000000000000007bffffffffffffffffffffffffffffffffffffffffffffffffffffffff19166020820180517bffffffffffffffffffffffffffffffffffffffffffffffffffffffff83818316178352505050506104cd565b50565b61042d82826040516024016103ab92919061068b565b6040516020818303038152906040527f319af333000000000000000000000000000000000000000000000000000000007bffffffffffffffffffffffffffffffffffffffffffffffffffffffff19166020820180517bffffffffffffffffffffffffffffffffffffffffffffffffffffffff83818316178352505050506104cd565b5050565b6104c982826040516024016104479291906106bb565b6040516020818303038152906040527f9710a9d0000000000000000000000000000000000000000000000000000000007bffffffffffffffffffffffffffffffffffffffffffffffffffffffff19166020820180517bffffffffffffffffffffffffffffffffffffffffffffffffffffffff83818316178352505050506104cd565b5050565b60008151905060006a636f6e736f6c652e6c6f679050602083016000808483855afa5050505050565b60008135905061050581610860565b92915050565b60006020828403121561051d57600080fd5b600061052b848285016104f6565b91505092915050565b60006105408383610601565b60208301905092915050565b610555816107b1565b82525050565b610564816107b1565b82525050565b600061057582610716565b61057f8185610739565b935061058a83610706565b8060005b838110156105bb5781516105a28882610534565b97506105ad8361072c565b92505060018101905061058e565b5085935050505092915050565b60006105d382610721565b6105dd818561074a565b93506105ed8185602086016107ed565b6105f68161084f565b840191505092915050565b602082016000820151610617600085018261054c565b50505050565b610626816107e3565b82525050565b6000602082019050610641600083018461055b565b92915050565b60006020820190508181036000830152610661818461056a565b905092915050565b6000602082019050818103600083015261068381846105c8565b905092915050565b600060408201905081810360008301526106a581856105c8565b90506106b4602083018461055b565b9392505050565b600060408201905081810360008301526106d581856105c8565b90506106e4602083018461061d565b9392505050565b6000602082019050610700600083018461061d565b92915050565b6000819050602082019050919050565b600081519050919050565b600081519050919050565b6000602082019050919050565b600082825260208201905092915050565b600082825260208201905092915050565b6000610766826107e3565b9150610771836107e3565b9250827fffffffffffffffffffffffffffffffffffffffffffffffffffffffffffffffff038211156107a6576107a5610820565b5b828201905092915050565b60006107bc826107c3565b9050919050565b600073ffffffffffffffffffffffffffffffffffffffff82169050919050565b6000819050919050565b60005b8381101561080b5780820151818401526020810190506107f0565b8381111561081a576000848401525b50505050565b7f4e487b7100000000000000000000000000000000000000000000000000000000600052601160045260246000fd5b6000601f19601f8301169050919050565b610869816107e3565b811461087457600080fd5b5056fea2646970667358221220eca137c4804afda30b670ee75b04cab71d032ec7ab540537a78860c8b9e34d7064736f6c63430008040033596f20796f2c204920616d206120636f6e747261637420616e64204920616d20736d617274",
  "linkReferences": {},
  "deployedLinkReferences": {}
}