{
  "_format": "hh-sol-artifact-1",
  "contractName": "WavePortal",
  "sourceName": "contracts/WavePortal.sol",
  "abi": [
    {
      "inputs": [],
      "stateMutability": "nonpayable",
      "type": "constructor"
    },
    {
      "anonymous": false,
      "inputs": [
        {
          "indexed": true,
          "internalType": "address",
          "name": "from",
          "type": "address"
        },
        {
          "indexed": false,
          "internalType": "uint256",
          "name": "timestamp",
          "type": "uint256"
        },
        {
          "indexed": false,
          "internalType": "string",
          "name": "message",
          "type": "string"
        }
      ],
      "name": "NewWave",
      "type": "event"
    },
    {
      "inputs": [],
      "name": "getAllWavers",
      "outputs": [
        {
          "components": [
            {
              "internalType": "address",
              "name": "waver",
              "type": "address"
            }
          ],
          "internalType": "struct WavePortal.WaverStruct[]",
          "name": "",
          "type": "tuple[]"
        }
      ],
      "stateMutability": "view",
      "type": "function"
    },
    {
      "inputs": [],
      "name": "getAllWaves",
      "outputs": [
        {
          "components": [
            {
              "internalType": "address",
              "name": "waver",
              "type": "address"
            },
            {
              "internalType": "string",
              "name": "message",
              "type": "string"
            },
            {
              "internalType": "uint256",
              "name": "timestamp",
              "type": "uint256"
            }
          ],
          "internalType": "struct WavePortal.Wave[]",
          "name": "",
          "type": "tuple[]"
        }
      ],
      "stateMutability": "view",
      "type": "function"
    },
    {
      "inputs": [],
      "name": "getTotalWaves",
      "outputs": [
        {
          "internalType": "uint256",
          "name": "",
          "type": "uint256"
        }
      ],
      "stateMutability": "view",
      "type": "function"
    },
    {
      "inputs": [
        {
          "internalType": "string",
          "name": "_message",
          "type": "string"
        }
      ],
      "name": "wave",
      "outputs": [],
      "stateMutability": "nonpayable",
      "type": "function"
    },
    {
      "inputs": [
        {
          "internalType": "uint256",
          "name": "",
          "type": "uint256"
        }
      ],
      "name": "wavers",
      "outputs": [
        {
          "internalType": "address",
          "name": "waver",
          "type": "address"
        }
      ],
      "stateMutability": "view",
      "type": "function"
    }
  ],
  "bytecode": "0x60806040523480156200001157600080fd5b506200004160405180606001604052806025815260200162001189602591396200004760201b620005a61760201c565b620001db565b620000e7816040516024016200005e919062000154565b6040516020818303038152906040527f41304fac000000000000000000000000000000000000000000000000000000007bffffffffffffffffffffffffffffffffffffffffffffffffffffffff19166020820180517bffffffffffffffffffffffffffffffffffffffffffffffffffffffff8381831617835250505050620000ea60201b60201c565b50565b60008151905060006a636f6e736f6c652e6c6f679050602083016000808483855afa5050505050565b6000620001208262000178565b6200012c818562000183565b93506200013e81856020860162000194565b6200014981620001ca565b840191505092915050565b6000602082019050818103600083015262000170818462000113565b905092915050565b600081519050919050565b600082825260208201905092915050565b60005b83811015620001b457808201518184015260208101905062000197565b83811115620001c4576000848401525b50505050565b6000601f19601f8301169050919050565b610f9e80620001eb6000396000f3fe608060405234801561001057600080fd5b50600436106100575760003560e01c8063117c55641461005c5780633ca736bd1461007a578063449d46c0146100aa5780639a2cdc08146100c6578063bd43a908146100e4575b600080fd5b610064610102565b6040516100719190610b83565b60405180910390f35b610094600480360381019061008f9190610904565b6101b3565b6040516100a19190610b46565b60405180910390f35b6100c460048036038101906100bf91906108c3565b6101fd565b005b6100ce61040a565b6040516100db9190610c3c565b60405180910390f35b6100ec610455565b6040516100f99190610b61565b60405180910390f35b60606002805480602002602001604051908101604052809291908181526020016000905b828210156101aa578382906000526020600020016040518060200160405290816000820160009054906101000a900473ffffffffffffffffffffffffffffffffffffffff1673ffffffffffffffffffffffffffffffffffffffff1673ffffffffffffffffffffffffffffffffffffffff168152505081526020019060010190610126565b50505050905090565b600281815481106101c357600080fd5b906000526020600020016000915090508060000160009054906101000a900473ffffffffffffffffffffffffffffffffffffffff16905081565b600160008082825461020f9190610d7c565b92505081905550600260405180602001604052803373ffffffffffffffffffffffffffffffffffffffff168152509080600181540180825580915050600190039060005260206000200160009091909190915060008201518160000160006101000a81548173ffffffffffffffffffffffffffffffffffffffff021916908373ffffffffffffffffffffffffffffffffffffffff16021790555050506102eb6040518060400160405280601681526020017f257320776176656420772f206d65737361676520257300000000000000000000815250338361063f565b600160405180606001604052803373ffffffffffffffffffffffffffffffffffffffff16815260200183815260200142815250908060018154018082558091505060019003906000526020600020906003020160009091909190915060008201518160000160006101000a81548173ffffffffffffffffffffffffffffffffffffffff021916908373ffffffffffffffffffffffffffffffffffffffff16021790555060208201518160010190805190602001906103aa9291906107a3565b506040820151816002015550503373ffffffffffffffffffffffffffffffffffffffff167f5f7e16dc676677766a70e9c5628aa6c54ddb8b6e5188e2ae1e1f17f1ffbea71642836040516103ff929190610c57565b60405180910390a250565b600061044d6040518060400160405280601781526020017f5765206861766520256420746f74616c207761766573210000000000000000008152506000546106de565b600054905090565b60606001805480602002602001604051908101604052809291908181526020016000905b8282101561059d57838290600052602060002090600302016040518060600160405290816000820160009054906101000a900473ffffffffffffffffffffffffffffffffffffffff1673ffffffffffffffffffffffffffffffffffffffff1673ffffffffffffffffffffffffffffffffffffffff16815260200160018201805461050290610e50565b80601f016020809104026020016040519081016040528092919081815260200182805461052e90610e50565b801561057b5780601f106105505761010080835404028352916020019161057b565b820191906000526020600020905b81548152906001019060200180831161055e57829003601f168201915b5050505050815260200160028201548152505081526020019060010190610479565b50505050905090565b61063c816040516024016105ba9190610ba5565b6040516020818303038152906040527f41304fac000000000000000000000000000000000000000000000000000000007bffffffffffffffffffffffffffffffffffffffffffffffffffffffff19166020820180517bffffffffffffffffffffffffffffffffffffffffffffffffffffffff838183161783525050505061077a565b50565b6106d983838360405160240161065793929190610bc7565b6040516020818303038152906040527fe0e9ad4f000000000000000000000000000000000000000000000000000000007bffffffffffffffffffffffffffffffffffffffffffffffffffffffff19166020820180517bffffffffffffffffffffffffffffffffffffffffffffffffffffffff838183161783525050505061077a565b505050565b61077682826040516024016106f4929190610c0c565b6040516020818303038152906040527f9710a9d0000000000000000000000000000000000000000000000000000000007bffffffffffffffffffffffffffffffffffffffffffffffffffffffff19166020820180517bffffffffffffffffffffffffffffffffffffffffffffffffffffffff838183161783525050505061077a565b5050565b60008151905060006a636f6e736f6c652e6c6f679050602083016000808483855afa5050505050565b8280546107af90610e50565b90600052602060002090601f0160209004810192826107d15760008555610818565b82601f106107ea57805160ff1916838001178555610818565b82800160010185558215610818579182015b828111156108175782518255916020019190600101906107fc565b5b5090506108259190610829565b5090565b5b8082111561084257600081600090555060010161082a565b5090565b600061085961085484610cac565b610c87565b90508281526020810184848401111561087157600080fd5b61087c848285610e0e565b509392505050565b600082601f83011261089557600080fd5b81356108a5848260208601610846565b91505092915050565b6000813590506108bd81610f51565b92915050565b6000602082840312156108d557600080fd5b600082013567ffffffffffffffff8111156108ef57600080fd5b6108fb84828501610884565b91505092915050565b60006020828403121561091657600080fd5b6000610924848285016108ae565b91505092915050565b60006109398383610abc565b905092915050565b600061094d8383610b0c565b60208301905092915050565b61096281610dd2565b82525050565b61097181610dd2565b82525050565b600061098282610cfd565b61098c8185610d38565b93508360208202850161099e85610cdd565b8060005b858110156109da57848403895281516109bb858261092d565b94506109c683610d1e565b925060208a019950506001810190506109a2565b50829750879550505050505092915050565b60006109f782610d08565b610a018185610d49565b9350610a0c83610ced565b8060005b83811015610a3d578151610a248882610941565b9750610a2f83610d2b565b925050600181019050610a10565b5085935050505092915050565b6000610a5582610d13565b610a5f8185610d5a565b9350610a6f818560208601610e1d565b610a7881610f40565b840191505092915050565b6000610a8e82610d13565b610a988185610d6b565b9350610aa8818560208601610e1d565b610ab181610f40565b840191505092915050565b6000606083016000830151610ad46000860182610959565b5060208301518482036020860152610aec8282610a4a565b9150506040830151610b016040860182610b28565b508091505092915050565b602082016000820151610b226000850182610959565b50505050565b610b3181610e04565b82525050565b610b4081610e04565b82525050565b6000602082019050610b5b6000830184610968565b92915050565b60006020820190508181036000830152610b7b8184610977565b905092915050565b60006020820190508181036000830152610b9d81846109ec565b905092915050565b60006020820190508181036000830152610bbf8184610a83565b905092915050565b60006060820190508181036000830152610be18186610a83565b9050610bf06020830185610968565b8181036040830152610c028184610a83565b9050949350505050565b60006040820190508181036000830152610c268185610a83565b9050610c356020830184610b37565b9392505050565b6000602082019050610c516000830184610b37565b92915050565b6000604082019050610c6c6000830185610b37565b8181036020830152610c7e8184610a83565b90509392505050565b6000610c91610ca2565b9050610c9d8282610e82565b919050565b6000604051905090565b600067ffffffffffffffff821115610cc757610cc6610f11565b5b610cd082610f40565b9050602081019050919050565b6000819050602082019050919050565b6000819050602082019050919050565b600081519050919050565b600081519050919050565b600081519050919050565b6000602082019050919050565b6000602082019050919050565b600082825260208201905092915050565b600082825260208201905092915050565b600082825260208201905092915050565b600082825260208201905092915050565b6000610d8782610e04565b9150610d9283610e04565b9250827fffffffffffffffffffffffffffffffffffffffffffffffffffffffffffffffff03821115610dc757610dc6610eb3565b5b828201905092915050565b6000610ddd82610de4565b9050919050565b600073ffffffffffffffffffffffffffffffffffffffff82169050919050565b6000819050919050565b82818337600083830152505050565b60005b83811015610e3b578082015181840152602081019050610e20565b83811115610e4a576000848401525b50505050565b60006002820490506001821680610e6857607f821691505b60208210811415610e7c57610e7b610ee2565b5b50919050565b610e8b82610f40565b810181811067ffffffffffffffff82111715610eaa57610ea9610f11565b5b80604052505050565b7f4e487b7100000000000000000000000000000000000000000000000000000000600052601160045260246000fd5b7f4e487b7100000000000000000000000000000000000000000000000000000000600052602260045260246000fd5b7f4e487b7100000000000000000000000000000000000000000000000000000000600052604160045260246000fd5b6000601f19601f8301169050919050565b610f5a81610e04565b8114610f6557600080fd5b5056fea26469706673582212200897d8fa0f4190bb135514c112cd8d13c16b73a15eb9b82f8ab88b471c9e8bc464736f6c63430008040033596f20796f2c204920616d206120636f6e747261637420616e64204920616d20736d617274",
  "linkReferences": {},
  "deployedLinkReferences": {}
}